:100000000C9467100C948F100C948F100C948F101C
:100010000C948F100C948F100C948F100C948F10E4
:100020000C948F100C948F100C948F100C94172834
:100030000C948F100C948F100C948F100C948F10C4
:100040000C948A280C948F100C948F100C948F10A1
:100050000C948F100C948F100C948F100C948F10A4
:100060000C948F100C948F107072697800474F00B9
:100070000100020047616D65204F76657200202007
:100080002064752073746F636B0050657274652013
:1000900064652032302500534F4952203A20004AEF
:1000A0004F5552203A2000BE00B700AD00446966AB
:1000B000666963696C65004E6F726D616C004661C4
:1000C00063696C650040240000000000000000002F
:1000D0000000000000000000000000D089C0000007
:1000E00000000111548000610C600151D080007348
:1000F0009DE7015154800032F73D00DD49C0002FDB
:10010000633100000000002500E1E0000000003441
:100110001040600000000014E038400D0888001115
:100120000004C01115540018E07080151D1C000952
:10013000108980151554000950AB000DD4940008A7
:10014000E07200000000000C040200000000000447
:10015000040200000000000C060600000000000879
:10016000060400000000000806040000000000086B
:1001700000040C700000000CE0760C880000000405
:1001800040221354000000064022612400000002B7
:100190007FE6615400000003000C12880000000399
:1001A000F8383FF8000000000FE015500000000094
:1001B00031800AA0000000002E80054000000000F1
:1001C0002E8002800000000031800100000000004D
:1001D000000001000000000000000100000000001D
:1001E000000007C000000008051008FC08101A1DD8
:1001F000007F800001FFE00003FFF80007FFFC0024
:100200001FFFFE001FFFFE003FFFFF007FFFFF807C
:100210007FFFFF807FFFFFC0FFFFFFC0FFFFFFC02A
:10022000FC07F1C0FC03E0C0FC01C0C0FC188CC09E
:10023000E01008C0E00000806000008070000080D6
:100240007000008078070180780501807C070380BA
:100250007E0007807F000F807F803F807FFFFF80D0
:100260007F803F801A1D007F800001FFE00003FFB8
:10027000F80007FFFC001FFFFE001FFFFE003FFF0E
:10028000FF007FFFFF807FFFFF807FFFFFC0FFFF3A
:10029000FFC0FFFFFFC0FC07F1C0FC03E0C0FC0192
:1002A000C0C0FC188CC0E01008C0E00000806000F6
:1002B000008070000080700000807800018078105D
:1002C00001807C0F83807E000F807F000F807F8005
:1002D0003F807FFFFF807F803F801A1D007F80006E
:1002E00001FFE00003FFF80007FFFC001FFFFE0016
:1002F0001FFFFE003FFFFF007FFFFF807FFFFF80AB
:100300007FFFFFC0FFFFFFC0FFFFFFC0FC07F1C082
:10031000FC03E0C0FC01C0C0FC188CC0E01008C0A9
:10032000E0000080600000807000008070000080AD
:10033000780811807807E1807C03C3807E00078005
:100340007F000F807F803F807FFFFF807F803F8026
:100350001A1D1010000010100000181000000820D6
:1003600000000C6000000440000007E000001FF0E7
:1003700000003FFFE0003FFFF8003FFFFC007FFF71
:10038000FE007FFFFF00FFFFFF80FFFFFF80FFFFFA
:10039000FFC0FFFFFFC0FFFF7FC0FFFC3FC0FFE0CB
:1003A00003C07F0001C03E1C71C01E0823C00E00A8
:1003B00003800601878007020B0003C07300013F22
:1003C000C200010000001A1D1010000010100000F3
:1003D00018100000082000000C600000044000001D
:1003E00007E000001FF000003FFFE0003FFFF800C3
:1003F0003FFFFC007FFFFE007FFFFF00FFFFFF804D
:10040000FFFFFF80FFFFFFC0FFFFFFC0FFFF7FC0B8
:10041000FFFC3FC0FFE003C07F0001C03E1C71C075
:100420001E0003C00E0003800600078007030B00B8
:1004300003C07300013FC200010000001A1D10102C
:1004400000001010000018100000082000000C60D0
:1004500000000440000007E000001FF000003FFF24
:10046000E0003FFFF8003FFFFC007FFFFE007FFF42
:10047000FF00FFFFFF80FFFFFF80FFFFFFC0FFFFC8
:10048000FFC0FFFF7FC0FFFC3FC0FFE003C07F0055
:1004900001C03E1C71C01E0003C00E000380060494
:1004A000878007030B0003C07300013FC2000100F7
:1004B00000001A1D003F800001F1E0000300300041
:1004C00004001800080004001800060010000300D3
:1004D00020000100200001806000008040000080BA
:1004E0004307808046E2FEC047B902C046870280CB
:1004F0004121898041183180211831802480018078
:10050000128001001B8003000B8002003F8783C024
:100510001D0C0700038C0C0000C0180000603000A8
:10052000003FE000000700001A1D003F800001F1BD
:10053000E000030030000400180008000400180068
:100540000600100003002000010020000180600070
:100550000080400000804307808046E2FEC047B92B
:1005600002C04687028041218980411831802118CC
:10057000318024800180128001001B8003000B80E9
:1005800002003F8003C01D0FC70003800C0000C0A5
:10059000180000603000003FE000000700001A1D56
:1005A000003F800001F1E00003003000040018006B
:1005B00008000400180006001000030020000100DD
:1005C00020000180600000804000008043078080A0
:1005D00046E2FEC047B902C04687028041218980B9
:1005E000411831802118318024800180128001005F
:1005F0001B8003000B8002003F8003C01D0FC7005B
:1006000003848C0000C7980000603000003FE000C9
:10061000000700001A1D0000000001CFC00007FF06
:10062000F8001FFFFC001FFFFF001FFFFF801FFFE0
:10063000FF801FFFFF801FFFFF801FFEFF801FBC8A
:100640007B801F9833801F8823801F8003801F803A
:1006500003801F8007801FC78F801FC49F800FF0FB
:100660007F800F8FFE0007807E0007807C00078060
:100670007C00078078000380780003C0780003C006
:10068000780003C0F80003C0F8001A1D0000000045
:1006900001CFC00007FFF8001FFFFC001FFFFF0095
:1006A0001FFFFF801FFFFF801FFFFF801FFFFF80D6
:1006B0001FFEFF801FBC7B801F9833801F88238014
:1006C0001F8003801F8003801F8007801FC80F804A
:1006D0001FCF1F800FF07F800F8FFE0007807E00EE
:1006E00007807C0007807C0007807800038078000A
:1006F00003C0780003C0780003C0F80003C0F8000E
:100700001A1D0000000001CFC00007FFF8001FFF06
:10071000FC001FFFFF001FFFFF801FFFFF801FFF68
:10072000FF801FFFFF801FFEFF801FBC7B801F9884
:1007300033801F8823801F8003801F8003801F90C9
:1007400087801FCF0F801FC01F800FF07F800F8F0B
:10075000FE0007807E0007807C0007807C00078009
:1007600078000380780003C0780003C0780003C0DD
:10077000F80003C0F8001A1D06000300073FC70079
:1007800005E07C80088008800C8009801A40128077
:10079000288008806F800F80461833C0C018304012
:1007A000800380408E0183409B86C7C094FC7CC040
:1007B000945028C0945028C094201180D42010C098
:1007C000540000C0540000C02C0000C03A0001409A
:1007D0001A0001400C0703400D0D864015000F80E4
:1007E0001980398009F0F700073FC2001A1D060082
:1007F0000300073FC70005E07C80088008800C806C
:1008000009801A401280288008806F800F80461867
:1008100033C0C0183040800380408E0183409B86E7
:10082000C7C094FC7CC0945028C0945028C0942029
:100830001180D42010C0540000C0540000C02C000F
:1008400000C03A0001401A0F81400C0883400D0897
:10085000864015070F801980398009F0F700073F9F
:10086000C2001A1D06000300073FC70005E07C8098
:10087000088008800C8009801A4012802880088037
:100880006F800F80461833C0C0183040800380400E
:100890008E0183409B86C7C094FC7CC0945028C0C6
:1008A000945028C094201180D42010C0540000C05F
:1008B000540000C02C0000C03A0001401A00014062
:1008C0000C0883400D0F864015070F801980398072
:1008D00009F0F700073FC2001A1D000000000000E9
:1008E0000000000040000001C000010FF00003FF05
:1008F000FC000D7FEA001D7FEB003FFFFF003FF78C
:10090000FF807FFBFF807FFDEFC07FFE4F807FC3B6
:100910008F807FC007807BD4A7C07BC847C0798009
:1009200007C0798007C078C70FC078C40F807C608B
:100930001F8078102780380FC70038000300180088
:1009400002001000020000000000000000001A1D5C
:100950000000000000000000000040000001C00096
:10096000010FF00003FFFC000D7FEA001D7FEB008C
:100970003FFFFF003FF7FF807FFBFF807FFDEFC061
:100980007FFE4F807FC38F807FC847807BD4A7C006
:100990007BC007C0798007C0798407C078C30FC0C7
:1009A00078C40F807C601F8078102780380FC700C4
:1009B00038000300180002001000020000000000D0
:1009C000000000001A1D00000000000000000000F0
:1009D00040000001C000010FF00003FFFC000D7F8C
:1009E000EA001D7FEB003FFFFF003FF7FF807FFB2A
:1009F000FF807FFDEFC07FFE4F807FC38F807FC869
:100A000047807BD4A7C07BC007C0798007C07980AE
:100A100007C078C40FC078C30F807C601F80781037
:100A20002780380FC70038000300180002001000AC
:100A3000020000000000000000001A1D000000007D
:100A4000001F8000007F800000FF000007FFF00013
:100A50001FFFF8003FFFFC003FFFFC007FFFFC0092
:100A60007FFFFE007FFFFE00FFFFFF00FFFFFF8014
:100A70007FFFFF807FFFFF007FBEFE007F2C9C007A
:100A80007F000E007C71C6003C000E007C000E0052
:100A90007C000C007C000C007C001C003E0F180049
:100AA0003E1030001780F000127FC00000000000F0
:100AB0001A1D00000000001F8000007F800000FF62
:100AC000000007FFF0001FFFF8003FFFFC003FFFA2
:100AD000FC007FFFFC007FFFFE007FFFFE00FFFFAA
:100AE000FF00FFFFFF807FFFFF807FFFFF007FBED3
:100AF000FE007F2C9C007F000E007C71C6003C0035
:100B00000E007C000E007C000C007C000C007C00C1
:100B10001C003E0F18003E0030001780F000127FCE
:100B2000C000000000001A1D00000000001F80002F
:100B3000007F800000FF000007FFF0001FFFF800AB
:100B40003FFFFC003FFFFC007FFFFC007FFFFE003B
:100B50007FFFFE00FFFFFF00FFFFFF807FFFFF80A2
:100B60007FFFFF007FBEFE007F2C9C007F000E00F9
:100B70007C71C6003C000E007C000E007C000C0066
:100B80007C000C007C101C003E0F18003E00300062
:100B90001780F000127FC000000000001A1D000046
:100BA0000000001000000066000000FF800003FF4E
:100BB000E00007FFE00007FFF0000FF9FC000FC0A6
:100BC0003C001FBFDE001F7FEE003FFFFE00FFFF67
:100BD000FE00FFFFFF007FFFFF007FFFFF807FFF22
:100BE000FF807FFFFF803FDFEF803F831F803E80DD
:100BF00037001E5983001F0903000F0006000F0075
:100C00000600070004000703800001840000008044
:100C100000001A1D00000000001000000066000027
:100C200000FF800003FFE00007FFE00007FFF00087
:100C30000FF9FC000FC03C001FBFDE001F7FEE005D
:100C40003FFFFE00FFFFFE00FFFFFF007FFFFF00F2
:100C50007FFFFF807FFFFF807FFFFF803FDFEF8010
:100C60003F831F803E8037001E5083001F19830082
:100C70000F0006000F000600070044000703800075
:100C800001800000008000001A1D0000000000101C
:100C900000000066000000FF800003FFE00007FF87
:100CA000E00007FFF0000FF9FC000FC03C001FBF81
:100CB000DE001F7FEE003FFFFE00FFFFFE00FFFF94
:100CC000FF007FFFFF007FFFFF807FFFFF807FFF30
:100CD000FF803FDFEF803F831F803E8037001E5044
:100CE00083001F0903000F0006000F000600070421
:100CF00044000703800001800000008000001A1DEE
:100D0000C218C000E73BCE0065EE7A005EC6620006
:100D10004A0003C0680000C029E1E0802033018060
:100D200031C0E100122113001261360011C0E4004D
:100D30001808040008080400180C0C00100C080027
:100D4000100C080010000800187F8C000880440078
:100D50000C00040004000C000600180007F07000EE
:100D6000001FC00000630000005D0000005D000087
:100D7000006300001A1DC218C000E73BCE0065EEFC
:100D80007A005EC662004A0143C0680000C029E1E3
:100D9000E0802000018031C0E100126133001221A7
:100DA000160011C0E4001808040008080400180C1C
:100DB0000C00100C0800100C0800100008001900AE
:100DC0004C0008FF84000C00040004000C00060026
:100DD000180007F07000001FC00000630000005DF5
:100DE0000000005D0000006300001A1DC218C00072
:100DF000E73BCE0065EE7A005EC662004A01C3C0E2
:100E0000682080C029C070802200098031C0E100C4
:100E10001221130012A1560011C0E40018080400AA
:100E200008080400180C0C00100C0800100C080036
:100E30001000080019C0EC00088044000C80440039
:100E400004FFCC000600180007F07000001FC0006F
:100E500000630000005D0000005D00000063000012
:100E60001A1D00000000007FE00003FFF8005FFF94
:100E7000FC005FFFFE007FFFFF001FFFFF805FFFA2
:100E8000FF807FFFFFC03FFFFFC0BF000040BF00EB
:100E90000040FFDA2C403FC410403F800040BF803C
:100EA0000040BF800080FFC381803FE7C300BFB028
:100EB0000600BF8FF800FF8000003F000000BF0069
:100EC0000000BF800000FF0000003E000000BF8067
:100ED0000000FF0000001A1D00000000007FE0007D
:100EE00003FFF8005FFFFC005FFFFE007FFFFF00D5
:100EF0001FFFFF805FFFFF807FFFFFC03FFFFFC03E
:100F0000BF000040BF041040FFDA2C403FC000404B
:100F10003F800040BF800040BF804080FFC07180A4
:100F20003FE00300BFB00600BF8FF800FF80000065
:100F30003F000000BF000000BF800000FF00000075
:100F40003E000000BF800000FF0000001A1D0000EE
:100F50000000007FE00003FFF8005FFFFC005FFF80
:100F6000FE007FFFFF001FFFFF805FFFFF807FFF0E
:100F7000FFC03FFFFFC0BF000040BF041040FFDACA
:100F80002C403FC000403F800040BF800040BF88F1
:100F90001080FFC421803FE3C300BFB00600BF8FB5
:100FA000F800FF8000003F000000BF000000BF808D
:100FB0000000FF0000003E000000BF800000FF00B6
:100FC00000001A1D0C00000003C0000003FFC40055
:100FD00003FFF2000FFFFF001FFFFF80FFFFFFC0B6
:100FE000FFFFFFC0FFFFFFC0F0FFFFC0E07FFFC0BB
:100FF000603FFFC0601FFF40600FFC406007004083
:1010000061E03C4020C0184030603040300000407B
:101010001000004010000040080000C008000080E0
:101020000C03F080040551000200020001000600DC
:1010300000C01800003FE0001A1D0C00000003C0B3
:10104000000003FFC40003FFF2000FFFFF001FFFBB
:10105000FF80FFFFFFC0FFFFFFC0FFFFFFC0F0FFEB
:10106000FFC0E07FFFC0603FFFC0601FFF40600F18
:10107000FC406007004061E03C4020A02840306018
:1010800030403000004010000040100000400800D8
:1010900000C0080000800C0000800403E10002038F
:1010A000E2000100060000C01800003FE0001A1D29
:1010B0000C00000003C0000003FFC40003FFF200A7
:1010C0000FFFFF001FFFFF80FFFFFFC0FFFFFFC0FC
:1010D000FFFFFFC0F0FFFFC0E07FFFC0603FFFC029
:1010E000601FFF40600FFC406007004061E03C4033
:1010F00020A0284030603040300000401000004008
:1011000010000040080000C0080000800C40008073
:1011100004200100021C02000100060000C01800AB
:10112000003FE0001A1D001FE00001FFF80003FF70
:10113000FC000FFFFE001FFFFF001FFFFF001FFF4F
:10114000FF807FFFFF807FF81FC0FFF7CFC0FFEF5A
:10115000EFC0FFEFE7C0FFFF37C0FFBED7C0FC1EE8
:10116000D7C079CE97C07A20FC8079C07080780093
:1011700000803800008038000100180001001C0FBA
:1011800001000C1982000406020002000400018024
:10119000180000E07000003FC0001A1D001FE000B2
:1011A00001FFF80003FFFC000FFFFE001FFFFF0020
:1011B0001FFFFF001FFFFF807FFFFF807FF81FC022
:1011C000FFF7CFC0FFEFEFC0FFEFE7C0FFFF37C073
:1011D000FFBED7C0FC1ED7C079CE97C07A20FC8056
:1011E00079C07080780000803800008038000100ED
:1011F000180001001C0F01000C19820004060200F7
:10120000020604000180180000E07000003FC000EA
:101210001A1D001FE00001FFF80003FFFC000FFF94
:10122000FE001FFFFF001FFFFF001FFFFF807FFF6B
:10123000FF807FF81FC0FFF7CFC0FFEFEFC0FFEFC9
:10124000E7C0FFFF37C0FFBED7C0FC1ED7C079CEB6
:1012500097C07A20FC8079C07080780000803800C8
:10126000008038000100180001001C0001000C3C47
:10127000020004200200020004000180180000E0C7
:101280007000003FC0001A1D0000000000FF800039
:1012900003FFE00007FFF0000FFFF8001FFFFC0056
:1012A0001FFFFC003FFFFE003FFFFF003FFFFF006E
:1012B0003FFFFF00FFFFFFC07DB6DBC07C924B808D
:1012C0007C0001803C70E1803C2041003C0001003A
:1012D0001C0003001C0002001C0902000E0F02008B
:1012E0000E090400070004000600080003001800AF
:1012F0000180600000FFC000001E00001A1D0000F9
:10130000000000FF800003FFE00007FFF0000FFF78
:10131000F8001FFFFC001FFFFC003FFFFE003FFF27
:10132000FF003FFFFF003FFFFF00FFFFFFC07DB654
:10133000DBC07C924B807C0001803C70E1803C00F3
:1013400001003C0001001C0003001C0002001C0006
:1013500002000E0002000E020400070384000600D3
:101360000800030018000180600000FFC000001E9C
:1013700000001A1D0000000000FF800003FFE000D5
:1013800007FFF0000FFFF8001FFFFC001FFFFC002D
:101390003FFFFE003FFFFF003FFFFF003FFFFF005A
:1013A000FFFFFFC07DB6DBC07C924B807C000180DC
:1013B0003C50A1803C2041003C0001001C00030087
:1013C0001C0002001C0002000E0482000E078400B4
:1013D00007000400060008000300180001806000F8
:1013E00000FFC000001E00001A1D00000000001FCA
:1013F000E00000FFC00001FFC00003FFE00017FF96
:10140000F8001FFFF8001FFFFC001FFFFC001FFF7C
:10141000FC001FFE3E001FFCDE001FFD2E001F30E3
:10142000CF001F0007001F0006801F800E001F9CBA
:101430000E003F920E001F401C000F207C000F1F6B
:10144000FC000F007C000F007C0007007C00070000
:101450007400060040000E000000000000001A1D8D
:1014600000000000001FE00000FFC00001FFC000FE
:1014700003FFE00017FFF8001FFFF8001FFFFC004C
:101480001FFFFC001FFFFC001FFE3E001FFCDE00D4
:101490001FFD2E001F30CF001F0007001F00068019
:1014A0001F8C0E001F920E003F8C0E001F401C0070
:1014B0000F207C000F1FFC000F007C000F007C0041
:1014C00007007C0007007400060040000E000000CA
:1014D000000000001A1D00000000001FE00000FFD7
:1014E000C00001FFC00003FFE00017FFF8001FFF6E
:1014F000F8001FFFFC001FFFFC001FFFFC001FFE89
:101500003E001FFCDE001FFD2E001F30CF001F001D
:1015100007001F0006801F800E001F908E003F8F67
:101520000E001F401C000F207C000F1FFC000F004E
:101530007C000F007C0007007C00070074000600A0
:1015400040000E000000000000001A1D0000000016
:101550000000C0000203C00006078000073F8000B3
:101560000FFF80001FFFF8001FFFF8001FFFF800AB
:101570003FFFFF803FFFFF803FFFFF003FFFFE0078
:101580003FFFFE003FFFFF007FFFFF80FEF7EF0001
:101590007E72CE003E30C8003C1088001E0008005D
:1015A0000E0008000600080004001000027C100075
:1015B000024420000100400000E18000001E000005
:1015C0001A1D000000000000C0000203C000060752
:1015D0008000073F80000FFF80001FFFF8001FFF03
:1015E000F8001FFFF8003FFFFF803FFFFF803FFF35
:1015F000FF003FFFFE003FFFFE003FFFFF007FFFB9
:10160000FF80FEF7EF007E72CE003E30C8003C1037
:1016100088001E0008000E00080006000800041ED6
:10162000100002091000020720000100400000E144
:101630008000001E00001A1D000000000000C00015
:101640000203C00006078000073F80000FFF8000F4
:101650001FFFF8001FFFF8001FFFF8003FFFFF808B
:101660003FFFFF803FFFFF003FFFFE003FFFFE0008
:101670003FFFFF007FFFFF80FEF7EF007E72CE008E
:101680003E30C8003C1088001E0008000E00080014
:101690000600080004211000023F10000200200094
:1016A0000100400000E18000001E0000341B00002B
:1016B0000001C00000000001FF7E000000003F00AC
:1016C00003F8000007C000000E00003C000000030B
:1016D0000000E000000000C0018000000000600386
:1016E00000000000002002000000000030020000A6
:1016F00000000010060000000000100C00000000B8
:101700000010100000000000103000000000001069
:10171000400000000000105F000000000010F30017
:10172000000000001006000000000010040000008F
:101730000000100400000000003004000000000061
:101740002004000000000040040000000001C00769
:10175000FC00000007000003C000001C0000007C2B
:101760000003F000000007FFFE00000C05FFF0E0A2
:101770007070E03FC01F800B09FFE055402A8015C4
:10178000000A000400040004001F000B06FFE055DF
:10179000402A8015000A000400281500842000005B
:1017A00000C46000001864C000000C0000000006C7
:1017B0001F0E0FE00320F910100040C0A0080081A8
:1017C00080400451030020042D0200200401020087
:1017D0001004010200000400820000040442000022
:1017E000080C23000028181F80E01010C0FF1820EC
:1017F00001880007C0030800000000080000000086
:10180000080000002015010840000188C00030C910
:10181000860018000C000C3E1800064130000080C5
:10182000800001004000A20022805A002D0002002A
:1018300020000200200001004000088088001841BC
:101840000C00303E06002180C2000310600006102C
:1018500030000010000000100000201303FC000006
:10186000041FE0000C07900038000800200007006B
:10187000600000C0E000003080000010F0000010A8
:101880001FFFFFF000020030010A0800012A490092
:10189000092849000820410008A210000082100019
:1018A0000082100000001000090800003C00240025
:1018B0003C003C003C0024003C00090818001800D3
:1018C0001800FF00FF001800180018000908180091
:1018D00018002400C300C3002400180018000908E1
:1018E0000000FF0081008100810081008100FF0075
:1018F00009080000FF0081009900BD0099008100E7
:10190000FF00090800000000080014002200410048
:101910008080FF80090800000000080014002A00F1
:101920005500AA80FF8009080000380044008200AA
:101930008200820044003800090800001C002200D8
:1019400055004900550022001C00090800001C0039
:10195000220049005D00490022001C000908000027
:101960001C00320079005D004F0026001C000908B1
:1019700000003C00240024002400240024003C003B
:10198000030307050705040505040503060302070D
:10199000020201020203020E090E0E0D0E0E0F0EC0
:1019A000070507050307050F0507050706070102D9
:1019B00005020007020207000207020002070200F8
:1019C00007060306070702020505020102020402D8
:1019D00000050202050006070505070502030202CD
:1019E0000602000000000B000300030705070407C0
:1019F00001050205070704000300000705050700AD
:101A0000050005020702000C0002020200040004A7
:101A10000201070507050704010704050702030281
:101A20000704070107060601010707070703030765
:101A3000000500000D000205000505050005020176
:101A400007030F0903060306070702020505070738
:101A50000207070507030107050607020705070533
:101A60000404030702050704040703070701060728
:101A7000050707030307050307030604070101071A
:101A80000107040703040307060705020501060111
:101A9000010704000705010204050700020102080E
:101AA00008080003000603060707020205050705EC
:101AB00002070705070301070506070207050705D3
:101AC00004040307020507040407030707010607C8
:101AD00005070703030705030703060407010107BA
:101AE00001070407030403070607050205010601B1
:101AF00001070402070500070005070206020307A5
:101B0000050703053F213F1208120A100A0E1C0E9A
:101B10000C1E0C141A14161F161E131E1E1B1E1E3E
:101B20001F1E3F213F3A2F3A173D173F213F181FF5
:101B300002040A041F0E04040E1F0A1F0A0E0E1FC1
:101B400004110E2E252E2F2A2E262929021F0208C7
:101B50001F08150E04040E150E15151B151B040683
:101B600004040C040000000017000300031F0A1FF8
:101B700016371A1904130A153A000300000E111142
:101B80000E000A040A040E040030000404040010CD
:101B9000001804031F111F121F101D151711151F08
:101BA00007041F17151D1F151D01011F1F151F17E6
:101BB000151F000A00003200040A110A0A0A110A5D
:101BC000040115020E11171E051E1F150A0E110A1B
:101BD0001F110E1F15111F05010E111D1F041F11CE
:101BE0001F1108100F1F041B1F10101F061F1E04BB
:101BF0000F0E110E1F09060E112E1F051A121509C0
:101C0000011F011F101F0F180F1F0C1F1B041B03A8
:101C10001C03191513001F11030418111F000201E2
:101C2000022020200001020C121E1F120C0C1212A6
:101C30000C121F0C1A14041E05242A1E1F021C1449
:101C40001D1020201D1F0814111F101E041E1E022F
:101C50001C0C120C3E0A040C123E1E040214160A3E
:101C6000020F120E101E0E100E1E081E120C12264F
:101C7000281E322A26041E21001F00211E040102F4
:101C8000013F213F05077F4141417F3E5B4F5B3E66
:101C90003E6B4F6B3E183C783C18183C7E3C181C41
:101CA000577D571C1C5E7F5E1C007E43437E007E7A
:101CB00073737E007E7F7F7E7F4141417F30483A53
:101CC000060E06297929067F4141417F60703F0257
:101CD000042A1C361C2A7F3E1C080000081C3E7F7C
:101CE00014227F22143C3C3C7EFF18423C817E3E05
:101CF0006375633E3E616B633E3E636B6B3E040205
:101D00007F020410207F201008082A1C08081C2AC3
:101D10000808143E554122637569756310181C1834
:101D200010040C1C0C04000000000000005F000008
:101D30000007000700147F147F14042A7F2A102351
:101D40001308646236495620500008070300001C3F
:101D50002241000041221C002A1C3E1C2A08083E89
:101D6000080800E06000000808080808006060003B
:101D70000060100804033E5149453E00427F400088
:101D800062514949462141494D331814127F1027A9
:101D9000454545393C4A49493041211109073649F1
:101DA000494936064949291E000024000000806484
:101DB00000000814224100141414141400412214C9
:101DC0000802015909063E415D594E7C1211127CF0
:101DD0007F494949363E414141227F4141221C7F92
:101DE000494949417F090909013E414151327F0872
:101DF00008087F00417F41002041413F017F0814D6
:101E000022417F404040407F020C027F7F02040855
:101E10007F3E4141413E7F090909063E416141BE85
:101E20007F09192946264949493201017F01013FAD
:101E30004040403F1F2040201F3F4038403F631438
:101E400008146303047804036151494543007F414A
:101E5000410003040810600041417F0004020102B8
:101E6000048080808080000307080020545478405C
:101E70007F284444383844444428384444287F3830
:101E800054545418087E09090218A4A49C787F08A9
:101E900004047800447D4000006080847D7F101041
:101EA000284400417F40007C047804787C080404C6
:101EB000783844444438FC1824241818242418FC86
:101EC0007C080404080854545420043F4444203C33
:101ED0004040207C1C2040201C3C4020403C4428AA
:101EE0001028444C9090907C4464544C4400083634
:101EF000410000007F00000041360800180408106F
:101F00000C7F4141417F0A4E6F2053442063617230
:101F100064206F720A6E6F204C4F414445522E4828
:101F200045580A0A153A45786974001D20466C61C7
:101F30007368696E670A20206C6F616465722E2E6B
:101F40002E0A0A444F4E2754205455524E204F46D5
:101F50004621000A0A153A49676E6F7265006D5690
:101F60000A0A504C45415345205455524E204F4685
:101F70004620004C4F57204241545445525921208D
:101F80000017534400161378001613140015102080
:101F9000001520100000540A03E181867F3E186D71
:101FA000830F0F0E0183866033186DC3198F1803DA
:101FB000C38E6033186DE330CF1803C39E60363094
:101FC000CDE360CF3006C79E7E3E30CDB360CF30CC
:101FD0000CC6F6603330D9B660CF33CFCCF6606133
:101FE000B0DB1E60CF30D86CE6C061B0DB1E618F05
:101FF00019986CC6C063B19B0E330F0FB078C6FF43
:102000007E1F1B061E0F0500893008023802497822
:1020100068140000F6E8DBCFC3B8AEA49B928A82B6
:102020007B746E68625C57524E4945413E3A373484
:10203000312E2C29272523211F1D1C1A191716158F
:1020400014131211100F0E0D0C0B0A090807064588
:102050000068010000050068013801000005003833
:1020600001680100006D2069200101FF030101F7F3
:102070000300000008000201000003040700000044
:10208000000000000001020408102040800102044A
:1020900008102001020408102004040404040404AD
:1020A000040202020202020303030303030000000E
:1020B0000023002600290000000000250028002B36
:1020C0000000000000240027002A00009F181124AF
:1020D0001FBECFEFD8E0DEBFCDBF12E0A0E0B1E081
:1020E000E4EBFDE502C005900D92AE32B107D9F7E1
:1020F00024E0AEE2B2E001C01D92AA3DB207E1F7D2
:1021000010E2CEECD0E204C02297FE010E94602EC5
:10211000CC3CD107C9F70E94A42A0C94D82E0C9469
:1021200000008FEF80933B0280933E0280933C023D
:1021300080933D0210923702089510925B0288E26C
:1021400080933A0283E492E00E94CD1F0E94911096
:1021500010923402109233021092320283E0809384
:1021600074018093790180937E0110928301109213
:10217000880110928D011092920110929701109295
:102180009C011092A1011092A6011092AB0143E0B4
:1021900067EA70E083E492E00E94E521882359F029
:1021A00054F0813029F0823031F48CE090E005C0A9
:1021B0008FE090E002C085E190E090933902809337
:1021C0003802089565EC70E083E492E00E94BA243E
:1021D0000C949D1083E492E00E9438250C94E21048
:1021E00080939A0260939B02609138027091390249
:1021F0004AE050E081E992E00E94E82B61EB71E057
:1022000081E992E00C94162B60E080E00C94F010D1
:10221000CF93DF93C4E1DAE083E492E00E942B21C4
:102220008823D1F3D0939A02D0939B0264E87CE197
:1022300081E992E00E94171E6FE970E081E992E067
:102240000E94F12A4AE050E06091340281E992E074
:102250000E94FD2BC15001F7DF91CF910895CF93DC
:10226000DF93C4E1DAE083E492E00E942B2188232B
:10227000D1F3D0939A02D0939B0264E87CE181E988
:1022800092E00E94171E67E970E081E992E00E94E7
:10229000F12A4AE050E06091340281E992E00E9424
:1022A000042C6AE870E081E992E00E94332B6EE72B
:1022B00070E081E992E00E94F12AC150A1F6DF911D
:1022C000CF91089564E08DE492E00E94D2198111CB
:1022D0000C949D100895FF920F931F93CF93DF935B
:1022E000CAE9D2E08EE188830BE912E08AE0F801C6
:1022F000808362E07BE181E992E00E94171E64E73F
:1023000070E081E992E00E94F12A64E87CE181E9D1
:1023100092E00E94171E85E0F82EF88284E1F80111
:10232000808362E770E081E992E00E94F12A4AE04E
:1023300050E06091330281E992E00E94042CF8821F
:1023400060E770E081E992E00E94F12A4AE050E003
:102350006091320281E992E00E94FD2B63E284E108
:10236000DF91CF911F910F91FF900C94F010E4E753
:10237000F1E090E08081980F359681E0E03BF8072E
:10238000C9F780916A0120916501820F20916F0148
:10239000820F19F081E0923008F480E00895809176
:1023A0003402873070F48091380290913902181607
:1023B000190614F481E008950E94B7118111FACF33
:1023C000089580E00895CF93DF9320E130E040E06E
:1023D00050E063E070E080E090E00E944D2C60935C
:1023E000350210923102809134028230B0F0C4E79D
:1023F000D1E0688170E080E090E00E94DF2C2DEC5D
:102400003CEC4CE45FE30E946B2D0E94B12C68838E
:10241000259681E0C03BD80761F7DF91CF91089501
:1024200061E08DE492E00E94D219882321F080912E
:102430003102815020C063E08DE492E00E94D21905
:10244000882321F0809131028F5F15C060E08DE418
:1024500092E00E94D219882321F0809131028550A8
:102460000AC062E08DE492E00E94D219882329F02C
:10247000809131028B5F809331028091310287FF1E
:1024800002C0815F05C08F302CF0833119F08F506E
:102490008093310264E08DE492E00E94D219882397
:1024A00009F458C0E0913102EC301CF5209138025B
:1024B000309139024E2F552747FD509585E0E802AF
:1024C000F0011124ED58FE4F828190E02817390762
:1024D0000CF440C081818D5F8A3008F089E08183EF
:1024E00085E0849FF001859FF00D1124ED58FE4F8B
:1024F00026C0E33161F120913802309139028E2FEC
:10250000992787FD90950C9745E0489FF001499FDA
:10251000F00D1124EC59FE4F428150E0241735078D
:10252000CCF041814D5F4A3008F049E0418345E0FD
:10253000489FF001499FF00D1124EC59FE4F828114
:10254000281B3109309339022093380208958BE01B
:1025500080933A0208957F928F929F92AF92BF929A
:10256000CF92DF92EF92FF920F931F93CF93DF935F
:10257000809135028B3018F024E038E107C08730B5
:1025800018F029E937E102C02AE538E141E062E3C9
:1025900081E992E00E94E51C60E879E181E992E03E
:1025A0000E94171EC4E7D1E0912CA12CB12C812CE4
:1025B00010E06AE0C62ED12CE12CF12C8A2D85305A
:1025C00031F08A3039F44AE5842E11E203C05DE22D
:1025D000852E10E1792C78182A813B81472D612FB7
:1025E00081E992E00E94E51C8AE0810F80939A02C3
:1025F00084E0870D80939B024AE050E0688181E986
:1026000092E00E94FD2B80913102992787FD9095E1
:102610008A159B0519F56091B4027091B5028091FD
:10262000B6029091B702A70196010E94122E653062
:1026300071058105910590F062E081E992E00E94C8
:10264000C71A09E029E0472D612F81E992E00E9435
:102650003D1B61E081E992E00E94C71A8FEFA81A42
:10266000B80A89E0980E25968CE69812A7CFC5E6A1
:10267000D1E09CE0A92EB12C13E12EE2922E3AE09B
:10268000C32ED12CE12CF12C2A813B81412F61E218
:1026900081E992E00E94E51C90929A0282E0810F0B
:1026A00080939B024AE050E0688181E992E00E94B9
:1026B000FD2B20913102822F992787FD90958A1555
:1026C0009B0551F52F3044F52E3011F007E001C085
:1026D0000BE06091B4027091B5028091B6029091C6
:1026E000B702A70196010E94122E6530710581057F
:1026F000910590F062E081E992E00E94C71A2CE017
:102700004FEF410F61E281E992E00E943D1B61E0E1
:1027100081E992E00E94C71A185F25968FEFA81AE8
:10272000B80A1B3209F0B0CF07E023E149E260E4C8
:1027300081E992E00E94151B27EE31E04AE26BE44A
:1027400081E992E00E94E51C80913102833121F5FC
:102750006091B4027091B5028091B6029091B70277
:102760002AE030E040E050E00E94122E6530710512
:102770008105910588F062E081E992E00E94C71A24
:1027800023E149E260E481E992E00E94151B61E0E7
:1027900081E992E00E94C71A82E480939A028BE258
:1027A00080939B026DE670E081E992E00E94F12A3D
:1027B00080913102833109F44AC068E18CE30E94C0
:1027C000F0108CE380939A028EE180939B0268E67E
:1027D00070E081E992E00E94F12A86E380939A02F8
:1027E00084E280939B02E0913102EC303CF485E07E
:1027F000E802F0011124ED58FE4F0FC0E331A1F0C3
:102800008E2F992787FD90950C9725E0289FF00142
:10281000299FF00D1124EC59FE4F4AE050E06281EF
:1028200081E992E00E94FD2B63EB71E081E992E087
:10283000DF91CF911F910F91FF90EF90DF90CF909C
:10284000BF90AF909F908F907F900C94162BDF914C
:10285000CF911F910F91FF90EF90DF90CF90BF909D
:10286000AF909F908F907F9008950F931F93CF9379
:10287000DF9380913E02992787FD90952091410238
:1028800030E061E08217930709F060E06093300266
:1028900025E0289FF001299FF00D1124EC59FE4FEF
:1028A000809137029081890F611101C0815080931E
:1028B000370282E080932F0220913F0230E0409166
:1028C000400250E010913702DFEFECE3F2E0CFEF8F
:1028D00005E08191992787FD9095089FD001099F78
:1028E000B00D1124AD58BE4F7C91710FDD2321F046
:1028F0008217930709F4D0E0C13021F084179507BF
:1029000009F4C1E082E0EE33F80711F0172FE1CFB0
:10291000972F80912F02DF3F11F481509150CF3FCC
:1029200011F4815091509093370280932F026623C7
:1029300041F0823031F4809133028F5F8093330213
:1029400005C0809132028F5F80933202DF91CF9178
:102950001F910F91089564E08DE492E00E94D219D6
:10296000882319F080E280933A02089562E07BE1C7
:1029700081E992E00E94171E80913002E0913602B8
:10298000882301F180912F028230E1F486E0E89FF4
:10299000F0011124E65FFE4F228133814AE064E0BA
:1029A00081E992E00E94E51C88E280939A028FE020
:1029B00080939B02E0914202F0E0EE0FFF1FE15F87
:1029C000FD4F1BC086E0E89FF0011124E65FFE4F3B
:1029D000248135814AE064E081E992E00E94E51CAF
:1029E00088E280939A028FE080939B02E0914202FA
:1029F000F0E0EE0FFF1FE95FFD4F6081718181E91B
:102A000092E00E94162B2CEA36E14AE06CE181E963
:102A100092E00E94E51C87E280939A028BE180930A
:102A20009B0260913702772767FD70954AE050E07E
:102A300081E992E00E94E82B61EB71E081E992E08C
:102A40000C94162B80913B0264E08230ECF58F3FB2
:102A5000D9F48DE492E00E94D219882309F440C091
:102A600080912E0295E08902F0011124EC59FE4F6D
:102A700091819923A9F19150918380933E02109204
:102A80002E0280913B021CC08DE492E00E94D2197C
:102A9000882331F190912E0285E09802F0011124F3
:102AA000ED58FE4F81818823D9F081508183809138
:102AB0003B02E82FFF27E7FDF095E45CFD4F908394
:102AC0008F5F80933B020CC08DE492E00E94D2198C
:102AD000882331F08FEF80933B028FE180933A029D
:102AE00065E08DE492E00E94D2198823C9F0E0915C
:102AF0003B02E150E0933B02E7FD0BC0FF27E7FDFF
:102B0000F095E45CFD4F808180932E028FEF8083EF
:102B100007C080913E0280932E028FEF80933E0289
:102B200080913B028F3F1CF48FEF80933B0280919A
:102B30003B0283301CF081E080933B0280913B029A
:102B400087FF0FC060E08DE492E00E94D2198111EE
:102B500044C061E08DE492E00E94D21981113DC031
:102B60004CC082300CF05BC060E08DE492E00E94CB
:102B7000D219882321F080912E02815020C062E07A
:102B80008DE492E00E94D219882321F080912E02D8
:102B90008F5F15C061E08DE492E00E94D219882316
:102BA00021F080912E028A5F0AC063E08DE492E0FA
:102BB0000E94D219882329F080912E02865080939A
:102BC0002E0280912E028C3014F08C5003C087FFAF
:102BD00026C0845F80932E02089580912E0281503A
:102BE00080932E0280912E0283301CF010922E02D0
:102BF000089587FF14C083E0EDCF62E08DE492E09A
:102C00000E94D219811107C063E08DE492E00E9416
:102C1000D219882339F380912E028F5FE1CF089576
:102C20006F927F928F929F92AF92BF92CF92DF92DC
:102C3000EF92FF920F931F93CF93DF9324E7A22E7F
:102C400021E0B22E912CC0E0D0E0712C1CE13AE0E2
:102C5000C32ED12CE12CF12CC63019F492E4792E3C
:102C600016E2892C871882E0682E680CF501228113
:102C70003381412F662D81E992E00E94E51CF50128
:102C80008081811112C062E081E992E00E94C71A3E
:102C900008E029E0412F662D81E992E00E943D1B6A
:102CA00061E081E992E00E94C71A80913B0287FDB2
:102CB00044C080913C02992787FD90958C179D0711
:102CC00049F40BE02CE04FEF410F682D81E992E0D1
:102CD0000E94151B80913D02992787FD90958C17C6
:102CE0009D0749F40BE02CE04FEF410F682D81E97F
:102CF00092E00E94151B80912E02992787FD9095E6
:102D00008C179D07D1F46091B4027091B502809147
:102D1000B6029091B702A70196010E94122E65306B
:102D200071058105910548F00BE02CE04FEF410F54
:102D3000682D81E992E00E94151B2196FBE09F0E11
:102D400085E0A80EB11CE4E89E1286CFC5E6D1E06E
:102D500010E0A12CB12C0AE0C02ED12CE12CF12CDA
:102D6000B2E09B2E910E2A813B81492D66E481E9D8
:102D700092E00E94E51C8881811112C062E081E925
:102D800092E00E94C71A09E02BE0492D66E481E930
:102D900092E00E943D1B61E081E992E00E94C71A27
:102DA00080913B0287FF1AC080912E02992787FDF0
:102DB00090958A159B0511F56091B4027091B5024A
:102DC0008091B6029091B702A70196010E94122E3F
:102DD000653071058105910588F008C080913E023B
:102DE000992787FD90958A159B0541F40CE020E119
:102DF000412F64E481E992E00E94151BFFEFAF1AB6
:102E0000BF0A155F2596113209F0AACFE0913C0266
:102E1000E7FD0EC085E0E802F0011124ED58FE4FF9
:102E20002381348145E068E181E992E00E94E51C5C
:102E3000E0913D02E7FD0EC085E0E802F0011124BB
:102E4000ED58FE4F2381348145E06DE181E992E048
:102E50000E94E51CE0913E02E7FD0EC085E0E8021D
:102E6000F0011124EC59FE4F238134814DE069E1DA
:102E700081E992E00E94E51C80913B028230D9F406
:102E80006091B4027091B5028091B6029091B70240
:102E90002AE030E040E050E00E94122E65307105DB
:102EA0008105910540F006E120E143E066E181E91A
:102EB00092E00E94151BDF91CF911F910F91FF901F
:102EC000EF90DF90CF90BF90AF909F908F907F90CA
:102ED0006F9008952FE030E040E050E060E070E057
:102EE000CB010E944D2C6093360223E030E040E09D
:102EF00050E060E070E0CB010E944D2C60934102F5
:102F00002CE030E040E050E060E070E0CB010E9457
:102F10004D2C60933F022CE030E040E050E060E058
:102F200070E0CB010E944D2C6093400224E030E021
:102F300040E050E060E070E0CB010E944D2C6093D7
:102F40004202089564E08DE492E00E94D219882341
:102F500019F084E180933A020895CF93E09136020C
:102F600086E0E89FF0011124E65FFE4F2081318169
:102F70004AE064E081E992E00E94E51C2CEA36E137
:102F80004AE06CE181E992E00E94E51C88E28093CE
:102F90009A028FE080939B02E0914202F0E0EE0FF4
:102FA000FF1FE95EFD4F6081718181E992E00E941F
:102FB000162BA0914102C5E0CA9FD0011124AC5943
:102FC000BE4F13962D913C91149747E165E281E93C
:102FD00092E00E94E51CA0913F02CA9FD0011124FB
:102FE000AD58BE4F13962D913C91149745E169E37E
:102FF00081E992E00E94E51CE0914002CE9FF00141
:103000001124ED58FE4F2381348145E164E481E9C8
:1030100092E0CF910C94E51C83E492E00E942B2176
:10302000882309F48BC066E08DE492E00E94D219F7
:1030300081110E94E21080913A028F3109F449C057
:1030400060F48B3069F118F48A30A1F1089584316D
:10305000B9F18E3109F443C00895883259F020F453
:10306000803209F441C008958932B1F08A3509F4FB
:1030700061C008950E94CF11882361F080913402CD
:103080008F5F809334020E94E31189E280933A02B9
:103090000C9408118AE54BC00E9410120C94AB12DC
:1030A0000E946A170E94AD170E9491108AE08093D7
:1030B0003A0204C00E94A2170E94AD170C9404119A
:1030C0000E94B711882391F10E9422150E941016C8
:1030D000F5CF0E9435140E94B6148EE128C00E94DC
:1030E000AB140E94B614EACF2091370280913802C7
:1030F00090913902820F911D27FD9A9597FD05C089
:10310000909339028093380204C0109239021092D1
:10311000380280913502882339F09BE090933A027F
:1031200081508093350208950E942F1188E2809388
:103130003A0208950E9462110C946B110895109246
:1031400094021092930283E292E090939202809311
:1031500091020895CF93CFB7F8948091CA0281115C
:1031600027C0E3EAF0E28491EFE8F0E29491E82FDF
:10317000F0E0EE0FFF1FEF53FF4DA591B4918C913E
:10318000892321F461E08AE00E94442A61E08AE018
:103190000E940B2A8CB580618CBD8CB580648CBD7F
:1031A00061E08DE00E940B2A61E08BE00E940B2A17
:1031B0008091CA028F5F8093CA02CFBFCF910895DA
:1031C00021E0FC012083089570E085E00C948329C0
:1031D000AF92BF92CF92DF92EF92FF920F931F9325
:1031E000CF93DF93EC0189819A812FE0289F8001A2
:1031F000299F100D112485E10E946629800F911FDF
:1032000024E0969587952A95E1F79A83898328810A
:10321000222391F1AC81AD80B12CC12CD12CE88559
:10322000F9857F0100E010E06E817F819B0140E025
:1032300050E08617970728F0BC01E817F90708F453
:10324000BF0180E090E01F921F921F92AF930E94F7
:10325000692C6B830F900F900F900F9070E085E0BA
:10326000DF91CF911F910F91FF90EF90DF90CF9062
:10327000BF90AF900C948329DF91CF911F910F9154
:10328000FF90EF90DF90CF90BF90AF900895FC013A
:103290008CE39FE09383828384E0818381E0848751
:1032A0000895CF93DF93EC018C819D81892B81F16F
:1032B0008C858F7151F584E10E946629BC018827B5
:1032C00077FD8095982F0E94DF2C26EE3FE34EEC91
:1032D00050E40E946B2D0E94B12C9B017B836A837A
:1032E0006115710581F084E08983FE0140E08481ED
:1032F00095812817390710F449830AC04F5F329629
:103300004430A9F702C08FEF89838C858F5F8C874B
:10331000DF91CF910895FC0188E0808389E081836B
:1033200087E0828386E0838384E0848382E08583F0
:1033300081E186830895DF92EF92FF920F931F93AE
:10334000CF93DF937C01EC0100E010E0DD24DA9400
:1033500062E088810E940B2A88810E947A2AF70104
:10336000E00FF11F892B21F487818F5F878308C0CD
:103370008781882349F08F3F11F4178201C0D782DB
:1033800060E088810E940B2A0F5F1F4F2196073053
:103390001105F1F6DF91CF911F910F91FF90EF9002
:1033A000DF900895FC01E60FF11D81E097819130D7
:1033B00009F080E00895262F30E0FC01E20FF31FB2
:1033C0008781423028F481508E3F48F080E0089594
:1033D0008F3FE1F3642F0E94DE2D9130B9F781E039
:1033E00008958EBD00000DB407FEFDCF8EB5089583
:1033F000DC01643508F053C0403308F050C09096AB
:103400008C919097342F359535953595E62FFF277C
:10341000E7FDF095242F2770823099F4DF01A55342
:10342000BD4F84E53802A00DB11D11248C9190E0B0
:10343000022E02C0959587950A94E2F780958170D7
:1034400009C0833039F446271C968C91482740FFE9
:1034500003C014C0811112C084E53802E00DF11DD3
:103460001124E553FD4F81E090E0022E01C0880F4A
:103470000A94EAF780959081982310C084E5380279
:10348000E00DF11D1124E553FD4F81E090E0022E87
:1034900001C0880F0A94EAF79081982B90830895D1
:1034A0001F93CF93DF93EC01162FF89460E08F8584
:1034B0000E94442A888918161CF460E00E94442A5D
:1034C000812F0E94F119888918161CF461E00E946E
:1034D000442A7894DF91CF911F91089528EF31E02D
:1034E000EBECF2E0DF01A9011D9241505040E1F701
:1034F000DC0119961C9219971A961C920895DF9276
:10350000EF92FF920F931F93CF93DF93EC018C8583
:103510008F5F8C878BECE82E82E0F82ED12C6D2DFE
:103520006064CE010E94501A60E8CE010E94501AD9
:1035300061E08F850E94442A888918161CF460E097
:103540000E94442A00E010E0F701E00FF11F8081A3
:103550000E94F1190F5F1F4F04351105A9F78889E3
:1035600018161CF461E00E94442AD39484E5E80E06
:10357000F11C86E0D812D3CF60E4CE01DF91CF9169
:103580001F910F91FF90EF90DF900C94501AFC0167
:1035900060A361A30895FC0160A341A30895CF92A5
:1035A000DF92FF920F931F93CF93DF931F92CDB7BC
:1035B000DEB76C01062FF42E10E0121754F4412FE1
:1035C0004F0D602FC60129830E94F8191F5F2981C2
:1035D000F4CF0F90DF91CF911F910F91FF90DF906B
:1035E000CF900895CF92DF92FF920F931F93CF93C6
:1035F000DF931F92CDB7DEB76C01062FF42E10E0DB
:10360000121754F4612F600F4F2DC60129830E94B9
:10361000F8191F5F2981F4CF0F90DF91CF911F918F
:103620000F91FF90DF90CF900895EF92FF920F934C
:103630001F93CF93DF93EC01F62E142FE22E0E94FE
:10364000F21A4FEF400F410F2E2D6F2DCE010E9429
:10365000F21A202F412F6F2DCE010E94CF1A6FEF4B
:103660006E0D6F0D202F412FCE01DF91CF911F9155
:103670000F91FF90EF900C94CF1ADF92EF92FF9290
:103680000F931F93CF93DF93EC01E62ED22EF42EEF
:10369000112707FD1095040F111D47FD1A958F2D59
:1036A000992787FD90958017910744F42D2D4F2D74
:1036B0006E2DCE010E94F21AF394F1CFDF91CF91DB
:1036C0001F910F91FF90EF90DF9008958F929F923E
:1036D000AF92BF92CF92DF92EF92FF920F931F9320
:1036E000CF93DF93EC01E62ED42E122FCC24C3947B
:1036F000C21AB22EB194BB0CF12C802F8470A82E6C
:10370000802F8270982E802F8870882E0170F1167D
:103710000CF04DC0C7FC04C01150B394B394CB0C53
:10372000F3948F2D880F8F5FC80EAA2071F0412F60
:103730004D0D6F2D6E0DCE010E94F8194F2D4D0DC0
:10374000612F6E0DCE010E94F819992071F04D2D58
:10375000411B6F2D6E0DCE010E94F8194D2D4F1992
:10376000612F6E0DCE010E94F819882071F04F2D47
:103770004D0D6E2D611BCE010E94F819412F4D0D8C
:103780006E2D6F19CE010E94F819002309F4BFCFE6
:103790004D2D4F196E2D611BCE010E94F8194D2D34
:1037A000411B6E2D6F19CE010E94F819B0CFDF9129
:1037B000CF911F910F91FF90EF90DF90CF90BF902E
:1037C000AF909F908F9008958F929F92AF92BF92EB
:1037D000CF92DF92EF92FF920F931F93CF93DF93DD
:1037E000EC01B62EA42E122FDD24D394D21AC22EB1
:1037F000C194CC0CFF24F394802F8170882E9924DF
:1038000093949E0C02708FEF8F0D8117C4F5D7FC37
:1038100004C01150C394C394DC0C8F2D880F8F5FAC
:10382000D80E882099F0212F220F290D4A2D411BF7
:103830006F2D6B0DCE010E94CF1A23E02E0D4A2D65
:103840004F19612F6B0DCE010E94CF1A002399F002
:10385000212F220F290D4A2D411B6B2D6F19CE01EF
:103860000E94CF1A23E02E0D4A2D4F196B2D611B9C
:10387000CE010E94CF1AF394E394E394C4CFDF9176
:10388000CF911F910F91FF90EF90DF90CF90BF905D
:10389000AF909F908F9008959F92AF92BF92CF92DA
:1038A000DF92EF92FF920F931F93CF93DF93EC0180
:1038B000B62EF42EA22EDE2CD194DD0C9D2C920E71
:1038C0001E2D160F292D612F0E94F21ACC24CA94A6
:1038D000C00ECF0C292D4C2D612FCE010E94F21A63
:1038E000D00EFE0C2D2D4F2D6B2DCE010E94CF1A28
:1038F000BA0C6FEF6B0D2D2D4F2DCE010E94CF1AFC
:1039000001E02E2D4F2D612FCE010E94661BDE2C73
:10391000D094DB0C02E02E2D4F2D6D2DCE010E9498
:10392000661BCE1804E02E2D4C2D6D2DCE010E946D
:10393000661B08E02E2D4C2D612FCE010E94661BC8
:10394000DF91CF911F910F91FF90EF90DF90CF907B
:10395000BF90AF909F900895AF92BF92CF92DF92A9
:10396000EF92FF920F931F93CF93DF93EC01A62E5C
:10397000C42EB22EF02E1E2DE194EE0CD12ED60EBA
:103980002E2D2B0D6D2D0E943D1BFA94FE0CC10EA9
:103990006FEF6A0D6B0D611BEF2C01E0212F4C2D99
:1039A000CE010E94E41B02E0212F4C2D6D2DCE0193
:1039B0000E94E41BDF91CF911F910F91FF90EF9038
:1039C000DF90CF90BF90AF9008956F927F928F92CB
:1039D0009F92AF92BF92CF92DF92EF92FF920F939E
:1039E0001F93CF93DF93F901A49031965491FC017A
:1039F000F0A064350CF00CC1BB24A7FCB094A62F3A
:103A0000BB27A7FDB095FD01EA0DFB1D1E161F0685
:103A10000CF0FEC040330CF0FBC0C52E042F112764
:103A200007FD1095E801C50FD11D57FDDA951C164D
:103A30001D060CF0EDC0E90122969501295F3F4F6C
:103A400037FF02C0295F3F4F73E0359527957A9580
:103A5000E1F747FF0AC0C52EC40E209FA001219F99
:103A6000500D1124C41BD50B40E00C2D112707FD70
:103A70001095040F111D47FD1A95013311051CF017
:103A800070E3C72EC41A67FD60E0E535F10514F058
:103A9000E4E5F0E01E2FFC0174857427862F99273A
:103AA00087FD9095FC01EA1BFB0BDF015F01F7E04E
:103AB000AF22BB24E0E8F0E002C0F595E795AA94B8
:103AC000E2F70E2FB7FD179653E0B595A7955A95D7
:103AD000E1F7AC0FBD1FE42FE77051E001C0550FB7
:103AE000EA95EAF7459545954595E4E54E02800D42
:103AF000911D112485539D4F40E0DD24C7FCD094D7
:103B0000BB24B3943327E42FF0E0EC15FD050CF053
:103B10007FC0FD01E490F1E0FF1219C0EC01A02E7E
:103B2000FD01862E881A9C2E980C911608F067C00D
:103B30009E2C9A2019F09880952A9882A69429F4B0
:103B40003196E4906894AA24A7F82196ECCFF1105E
:103B50001BC0752E7094EC01A02EFD01862E881AD4
:103B60009C2E980C911608F04AC09E2C9A2019F0B1
:103B7000988097209882A69429F43196E4906894CE
:103B8000AA24A7F82196ECCFE3E0FE1631F0EC0171
:103B9000A02EFD01862E881A2EC0752E7094962EAA
:103BA000EC01A02EFD019116B0F48E2C8A2049F074
:103BB0008880692C672660FE02C0852A01C08720A4
:103BC0008882A69429F43196E4906894AA24A7F8F0
:103BD00093942196E8CF7B2512C09E2C9A2019F051
:103BE000988095269882A69429F43196E49068945A
:103BF000AA24A7F821969C2E980C911670F3550FC5
:103C000019F48C5A9F4F51E04F5FA20FB31F7BCF27
:103C1000DF91CF911F910F91FF90EF90DF90CF90A8
:103C2000BF90AF909F908F907F906F900895DC0130
:103C3000FB0184918F5F14968C9314973196E491D5
:103C4000EF5F1596EC9315976E5F7F4F5F967C93B1
:103C50006E935E970895EF920F93CF93DF93EC01ED
:103C60004E876D872F87E98A088B81E0888788A334
:103C700019A28F8362E07BE1CE010E94171E0E9491
:103C8000AA188CB58F7D8CBD8CB58C7F81608CBD66
:103C90008DB581608DBD8CB58C608CBD61E08E85ED
:103CA0000E940B2A61E08D850E940B2A61E08F85BE
:103CB0000E940B2A898918161CF461E00E940B2AC5
:103CC000888918161CF461E00E940B2A898918164D
:103CD0006CF460E00E94442A6AE070E080E090E0CA
:103CE0000E94032961E089890E94442A8D859927D1
:103CF00087FD9095FC01E756FF4DE491F0E0EE0F53
:103D0000FF1FE954FF4D259134913D8B2C8BFC0115
:103D1000EB57FF4D84918B8F8E85992787FD90956A
:103D2000FC01E756FF4DE491F0E0EE0FFF1FE95470
:103D3000FF4D259134913B8B2A8BFC01EB57FF4DB6
:103D400084918A8F8889992787FD9095FC01E75691
:103D5000FF4DE491F0E0EE0FFF1FE954FF4D259178
:103D600034913F8B2E8BFC01EB57FF4D84918C8F50
:103D70008F85992787FD9095FC01E756FF4DE491CB
:103D8000F0E0EE0FFF1FE954FF4D25913491398F7C
:103D9000288FFC01EB57FF4D84918D8F61E2CE019E
:103DA0000E94501A64E1CE010E94501A8B8587FF51
:103DB00002C08FE78B876B856068CE010E94501A26
:103DC00060E2CE010E94501A6CE0CE010E94501AAF
:103DD000CE01DF91CF910F91EF900C947F1A6F92EB
:103DE0007F928F929F92AF92BF92CF92DF92EF928B
:103DF000FF920F931F93CF93DF93EC01162FF42EB6
:103E0000B02EE8A064350CF081C08FE284170CF46A
:103E10007DC0EC81F0E031970E9FC0010F9F900DA7
:103E20001124860F911D67FD9A95181619060CF03E
:103E30006DC08D81809FC0011124840F911D47FDAD
:103E40009A95181619060CF061C0A62E962EC22E51
:103E5000D12C8A2D811B992787FD90952C8130E0EC
:103E6000821793070CF051C0215031098217930734
:103E700079F0C29ED001C39EB00DD29EB00D112428
:103E8000A80FB91FEE8DFF8DEA0FFB1F749001C0C4
:103E9000712C8F2C6F2C282D2F19332727FD30954F
:103EA0008D8190E0281739076CF570FE11C081E014
:103EB000B81206C0482D6A2DCE010E94F8191EC006
:103EC0000B2D2B2D462D692DCE010E943D1B16C0BA
:103ED00089A198A1891791F088A381E0B81206C042
:103EE000482D6A2DCE010E94F81907C00B2D2B2DED
:103EF000462D692DCE010E943D1BE8A276946B0CE5
:103F00008394C9CF9B0CA394A4CFE8A2DF91CF9157
:103F10001F910F91FF90EF90DF90CF90BF90AF90E7
:103F20009F908F907F906F9008950F93CF93DF9322
:103F3000EC01262F6A3039F42D8198858A85299FD6
:103F4000800D112422C06D3011F108854A856985E4
:103F50000E94EF1E48855C812985549F200D112405
:103F600029878F81882399F0332727FD309584E5B1
:103F700090E0459F801991091124821793073CF422
:103F80009D818A85499F800D11248A87198681E049
:103F900090E0DF91CF910F910895CF92DF92EF9251
:103FA000FF920F931F93CF93DF93EC010A8D1B8D2C
:103FB000009510950E94E0286B017C010E94E0288A
:103FC000C094D094E094F09460957095809590950D
:103FD000C69E9001C79E300DD69E300D1124209FA5
:103FE0007001219FF00C309FF00C11240980DA81C0
:103FF000C02D0E94E028CE01860F971F8E0D9F1DB9
:10400000DF91CF911F910F91FF90EF90DF90CF90B4
:104010000C94212C8F929F92AF92BF92CF92DF92FD
:10402000EF92FF920F931F93CF93DF93EC015C010C
:1040300086E8A80EB11CD5018C91882309F44DC0E7
:104040008C3018F41CE0181B01C010E0FE01EA5A85
:10405000FF4F81E080836E01BEE4CB0ED11C60E097
:10406000C6010E94C71A4E01E3E58E0E911CD401D1
:104070008C9103E0080F9DE2F92E4F2D481B410F54
:1040800023E0E22E24E560E0C6010E94AC1C61E062
:10409000C6010E94C71AF401808103E0080F4F2D6A
:1040A000481B410F24E560E0C6010E944C1CFE0144
:1040B000E95AFF4F84E080833196D4018C91181B1C
:1040C000115D1083CC57DF4F68817981C6010E9452
:1040D000F12AF501808181508083DF91CF911F917A
:1040E0000F91FF90EF90DF90CF90BF90AF909F9097
:1040F0008F900895DF92EF92FF920F931F93CF93CB
:10410000DF93EC018C8D9D8D892B09F49CC08E0171
:10411000025B1F4F40E061E0C8010E94CB1A85E5B9
:10412000FE01EE5AFF4F9081891B359680833196B0
:104130001082698D613009F462C028F0888D653085
:1041400008F074C06FC0CE0185960E94BD2681E044
:10415000FE01EA5AFF4F808362E07BE1C8010E94C2
:10416000171E1D8E1C8EFE01EC5AFF4F108238EA7E
:10417000D32E7E018AE0E80EF11CCE010E942B2195
:104180008823D9F363E77FE1C8010E94F12A6A8D91
:104190007B8D4AE050E0C8010E941B2C6EE57FE158
:1041A000C8010E94F12A6D2D62956F7070E04AE09F
:1041B00050E0C8010E94E82B63E57FE1C8010E943E
:1041C000F12A64E0C7010E94D21981113CC0DA943F
:1041D000A1F660E0CE010E94E41883B7817F84607D
:1041E00083BF83B7816083BF83B7816083BF8895B6
:1041F00083B78E7F83BF83B78E7F83BFBECFCF58F9
:10420000DF4F488159816A817B814F70552766272E
:104210007727483051056105710510F467E009C042
:1042200068E707C0882379F06B5F03C0882359F0E3
:104230006FE2C801DF91CF911F910F91FF90EF9036
:10424000DF900C94182BDF91CF911F910F91FF906D
:10425000EF90DF9008958F929F92AF92BF92EF926E
:10426000FF920F931F93CF93DF93EC017C0100E843
:10427000E00EF11CF70180809180A280B3800E9443
:10428000D42895018401061B170B280B390BB901A3
:10429000A8015E011FE7A10EB11CF501808190E02D
:1042A000A0E0B0E08E0105581F4F84179507A607C0
:1042B000B70750F4F80180819181A281B381892BE5
:1042C0008A2B8B2B09F040C0F80180819181A2815B
:1042D000B381892B8A2B8B2BA9F57E01F5E2EF0E9A
:1042E000F11CC7010E94BA26C7010E942727C701F7
:1042F0000E94EB27CE010E940A20CE010E947A2064
:104300007E012EE4E20EF11CC7010E947F1AFE011D
:10431000EC5AFF4F8081811103C0C7010E946E1AC1
:104320000E94E028F8016083718382839383FE01F9
:10433000EB58FF4FC958DF4F28813981621B730B3F
:104340007183608380E036C00E94D428F50120810B
:10435000620F711D811D911DF7016083718382833E
:104360009383FE01EF58FF4F408151816281738139
:104370004F5F5F4F6F4F7F4F4083518362837383E3
:10438000F80110821182128213820E94E028FE013D
:10439000E958FF4F6083718382839383CE010E942B
:1043A000E818CE010A960E949B19CE0148960E94F9
:1043B000511981E0DF91CF911F910F91FF90EF9004
:1043C000BF90AF909F908F9008952F923F924F9201
:1043D0005F926F927F928F929F92AF92BF92CF9295
:1043E000DF92EF92FF920F931F93CF93DF93CDB79E
:1043F000DEB766970FB6F894DEBF0FBECDBF9E8BBB
:104400008D8B6F87788B942EFC01EC5AFF4F1082B6
:1044100088248A941C82A12C30E33B83B12C6C014C
:104420008AE0C80ED11C6D887E8893E5690E711CE8
:10443000ED89FE89B5962F01242F30E03A87298730
:104440008D899E89895A9F4F9E838D83ED89FE8930
:10445000E85AFF4FF887EF832D893E892A5A3F4F4C
:104460003C872B878D899E898B5A9F4F9E878D878E
:10447000ED89FE89E25BFF4F1F018D899E890E94B5
:104480002B218823D1F364E0C6010E94D2193B811D
:10449000032F112707FD109581113EC065E0C6016D
:1044A0000E94D219811138C066E0C6010E94D2195B
:1044B000811132C03C81311142C044E063E0C60149
:1044C0000E94DB19882321F0B394C2010E9467285F
:1044D00044E061E0C6010E94DB19882321F0BA9410
:1044E000C2010E9467288B2D992787FD9095E98549
:1044F000FA858E179F0731F0B7FE05C0BB24BA942A
:10450000B90C01C0B12CF301808174E0A72EA80E74
:104510008B9DA01811241DC0F301A08064E0C6018A
:104520000E94D219882309F484C0C2010E943B284A
:104530008B2CA194A99CA02C1124AA94AA94C80104
:104540008A199109A7FC939502970CF476C031E083
:104550003C830A0D111DA7FC1A9517FF02C00F5FBF
:104560001F4FC801959587959A83898329812B834D
:10457000ED81FE811082EF81F885808381E0EB85FB
:10458000FC858083ED85FE8510820F851889E12CDE
:10459000F12C4B2D552747FD509533E0E91420F5BC
:1045A000E416F50669F4ED81FE813083F301808124
:1045B000F22FB89EF00D11248F2FEF81F8858083A4
:1045C000F80165917491C101298B3C8B4A8B5B8BFF
:1045D0000E94332BFFEFEF1AFF0A0E5F1F4F5B891C
:1045E0004A893C892989DACF60E0C1010E94C71A53
:1045F000F30180814981B89E400D1124415024E58A
:1046000060E0C1010E94F21A61E0C1010E94C71A74
:10461000F301808103E0080F4981B89E400D112409
:10462000425053E0E52E24E560E0C1010E944C1C9D
:1046300024CFC2010E9451287CCF882D66960FB6E8
:10464000F894DEBF0FBECDBFDF91CF911F910F91C8
:10465000FF90EF90DF90CF90BF90AF909F908F90A2
:104660007F906F905F904F903F902F9008950F93A1
:104670001F93CF93DF938C01EC01C25BDF4FCE0120
:104680000E946E1A6BE27FE1CE010E94F12ACE01F8
:104690000E947F1A8CB583608CBD8DB58E7F8DBDD9
:1046A00087E292E0EEEFFFE30995F801EC5AFF4F45
:1046B000108266E07FE1CE010E94332BCE010E9482
:1046C0007F1A065F1F4FC8010E949B1964E0C80152
:1046D0000E94D219811107C062E370E080E090E08F
:1046E0000E940329F0CFDF91CF911F910F91089580
:1046F0002F923F924F925F926F927F928F929F92F2
:10470000AF92BF92CF92DF92EF92FF920F931F93DF
:10471000CF93DF93CDB7DEB729970FB6F894DEBFFE
:104720000FBECDBF998788871B012A013C0180E716
:10473000680E711CF3018081882309F402C181E0B5
:10474000E885F985EA5AFF4F8083E885F985EB5AB9
:10475000FF4F1082E885F985EC5AFF4F1082E885FB
:10476000F985108E8F01025B1F4F61E0C8010E9426
:10477000C71A888599858D5A9F4F9C838B83C884DF
:10478000D98497E5C90ED11CE884F984E8E5EE0EDA
:10479000F11C888599858E5A9F4F9A838983E88575
:1047A000F985EF58FF4FFE83ED8388849984FAE002
:1047B0008F0E911CA884B98485E2A80EB11C88854F
:1047C00099850E942B218823D1F3F10184918823BC
:1047D00021F0EB81FC81508101C050E026E93FE1EE
:1047E00040E060E0C8015F830E94E51C5F814114E6
:1047F000510439F04CE0450F920160E0C8010E947D
:10480000E51CF60110828CE0F7018083B101C8013C
:104810000E94F12AE981FA819081892F880F890FFE
:1048200081958D5AF6018083EB81FC819081892FDF
:10483000880F890F8195835DF7018083ED81FE816B
:10484000808184FF03C061E97FE102C06DE87FE100
:10485000C8010E94332BE981FA819081892F880F4A
:10486000890F81958D5AF6018083F70180818F5FD2
:104870008083E885F98582A5882319F069E87FE1BE
:1048800002C065E87FE1C8010E94332BE981FA810B
:104890009081892F880F890F81958D5AF601808329
:1048A000F70180818F5F808361E87FE1C8010E940A
:1048B000332B65E0C4010E94D219882351F0E885AA
:1048C000F98562A56F5FC5010E947D28C5010E9420
:1048D000672864E0C4010E94D219811113C0F3015A
:1048E0002081822F90E0A0E0B0E0ED81FE81408148
:1048F000518162817381481759076A077B07A8F0C5
:104900002F3F99F08FEFF3018083088519850B5DA8
:104910001F4F60E0C8010E946426C8010E943B2826
:1049200081E0E885F985808F0CC066E0C4010E94B3
:10493000D219882309F443CF888599850E943723AB
:1049400034CF29960FB6F894DEBF0FBECDBFDF91EE
:10495000CF911F910F91FF90EF90DF90CF90BF907C
:10496000AF909F908F907F906F905F904F903F900F
:104970002F900895AB0165E97FE10C947823E0E87E
:10498000F7E72591349181E02130304C09F080E047
:104990000895CF93DF93EC010E94BF249E01275A14
:1049A0003F4FDE01A059BF4F882309F43CC0E6E920
:1049B000F7E78491F9018083E7E9F7E7E491EC8375
:1049C000E8E9F7E7E491ED83E9E9F7E78591949168
:1049D0009F838E83EBE9F7E7859194919987888788
:1049E000EDE9F7E7E491EBA7EEE9F7E7E491EAA751
:1049F000EFE9F7E7E491EC93E0EAF7E7859194912A
:104A00009D8F8C8FE2EAF7E7859194919F8F8E8F2F
:104A1000E4EAF7E78591949199A388A3E6EAF7E79A
:104A20008591949120C08CE3F90180831C822FEF43
:104A30002D8380E293E09F838E8384ED93E09987BA
:104A4000888781E08BA78AA72C938CEA9DE09D8FB5
:104A50008C8F8EED9DE09F8F8E8F84E79EE099A3D3
:104A600088A38CE39FE09BA38AA3DF91CF91089555
:104A7000CF92DF92EF920F93CF93DF93EC01FC0183
:104A8000E158FF4F82E38083349741E050E060E0DB
:104A900070E040835183628373833B978FEF808301
:104AA000CE010E94C924CE010E94E0186FEFCE0112
:104AB0000E94E4186E018AE0C80ED11CC6010E9453
:104AC0008B19C6010E949B19CE0148960E94471976
:104AD0003EE0E32E0FE020E14BE06DE0CE01825B93
:104AE0009F4F0E942B1EA596CE010E94D02565E007
:104AF000C6010E94D219882351F060E0CE01DF91F7
:104B0000CF910F91EF90DF90CF900C947D2840E0F3
:104B100066E070E2CE01DF91CF910F91EF90DF90D0
:104B2000CF900C946F26CF93DF9350E0FA01EE0FF5
:104B3000FF1FE80FF91F37852089E32FF22FE60FBB
:104B4000F11DE60FF11D25913491FA01EE0FFF1FC3
:104B5000E80FF91F30A3278FF90165917491FC01CB
:104B6000D481D69FC02D1124E40FF51FC1A3F901F4
:104B7000A591B4916B2F70E0EC2FF0E0DC01A40F55
:104B8000B51F6E177F0720F4F90125913491C32FCB
:104B9000CD9FC02D11249296CC93DF91CF91089593
:104BA00021E0FC01248324E020A725E630E2308BBD
:104BB000278740E060E00E94932561E070E083E099
:104BC0000E948329E1EBF0E08081887F816080830F
:104BD000F89410928000E1E8F0E0108210928500D5
:104BE0001092840088E191E090938900809388007E
:104BF000808188608083808181608083EFE6F0E03F
:104C0000808182608083789408950F93FC01862FC1
:104C1000642F011129C08230D1F048F4882391F02B
:104C2000813011F540E0CF010F910C949325833032
:104C3000A9F08430C9F48481489F602D1124658FC8
:104C4000268F12C04B3008F06AE0668B0DC084815D
:104C5000489F602D1124618F228F06C08481489F58
:104C6000602D1124638F248F0F910895FC01211171
:104C70000EC0648B8481489F402D1124458B15A262
:104C800014A213A281E0878B8093CF04108E089525
:104C90008091CF04882319F08091CC0401C080E07A
:104CA0008093B4000895FC0161110DC0178A158A24
:104CB00014A213A2108E1092CC041092CD04109264
:104CC000CF040C9448260895CF93DF93EC01611133
:104CD00003C00E9453261982DF91CF9108950F934C
:104CE0001F93CF93DF93EC018B0141110EC060E065
:104CF0000E9464261E870D871B8A1A8A81E0898399
:104D000089E08E8B198E1B8E1D8EDF91CF911F91A6
:104D10000F910895CF93DF93EC01611128C0888132
:104D2000882329F18981811122C089852F81988565
:104D3000E22FF92FE80FF11DE80FF11D85919491F5
:104D40008F3F2FEF920711F4188211C09C8799278B
:104D5000880F991FEA85FB85E80FF91F659174910B
:104D600040E0CE010E946F2689858F5F8987DF91A1
:104D7000CF91089560E00C948A2660E00C9464263C
:104D80000F93CF93DF93EC0161115DC0898188237C
:104D900009F459C08D89811156C02D853E858A89B7
:104DA0009B89880F991F820F931FFC018591949115
:104DB0000097D1F48989882321F01B8A1A8AF90186
:104DC00011C01982888160E0882331F0CE010E94F1
:104DD0008A268A899B8925C0CE01DF91CF910F91C8
:104DE0000C94532685919491BC01769567957695A0
:104DF000679580FF1DC0AC01A6E056954795AA9522
:104E0000E1F7292F26952695269520514F716F7031
:104E100000E0CE010E9405268A899B8901969B8B22
:104E20008A8B880F991FED85FE85E80FF91FDACF71
:104E3000492F6F7320E0CE010E9436268A899B8914
:104E400001969B8B8A8BDF91CF910F91089560E043
:104E50000C94C026CF93DF93EC016111B9C08F8908
:104E6000882309F4B5C08D89811105C0CE01DF9179
:104E7000CF910C94532681508D8B8DA1811138C018
:104E80008BA19CA101969C01220F331FEF8DF8A1ED
:104E9000E20FF31F25913491422F47704EA3A901D1
:104EA00063E0569547956A95E1F7BA01769567955F
:104EB000232F269526952FA36F732C81629F602D3B
:104EC00011246DA341704093CB049CA38BA329A113
:104ED00030E08217930760F08AA1882329F0281B0D
:104EE00031093CA32BA304C060E0CE010E945326ED
:104EF0008DA181508DA3288D2F5F288F4C893FA1D4
:104F0000340F8C85380F3A836B8D662361F070E027
:104F1000822F992787FD90950E94FE2D8C8D869F6C
:104F2000300D11243A838A8190E0CB966BE370E0D8
:104F30000E94FE2D8A833E893B83698D662371F032
:104F4000772767FD7095822F992787FD90950E949E
:104F5000FE2D8A8D869F300D11243B836D8D662337
:104F600091F0822F992787FD909570E00E94FE2D89
:104F7000CB0162E070E00E94FE2D2E8D9B81289F68
:104F8000900D11249B838B814F3339F08A300CF0C4
:104F900089E087FD80E08B8301C01B82F894EA8161
:104FA000F0E0EC5EFF4DE491E093CE0498A58D8196
:104FB000989F802D11249B81899F802D11249EA173
:104FC000899F802D11248093CD048093CC04789404
:104FD000DF91CF91089560E00C942A276091CD0471
:104FE000662321F18091D0048F5F8093D00490914B
:104FF000CE048917D8F08091CF0491E0892780935F
:10500000CF041092D0048091CB04882369F0909152
:10501000AF0183E4989F802D1124895B8093AF01B9
:105020000E94DE2D9093CC040C94482608951F9284
:105030000F920FB60F9211242F933F934F935F93CC
:105040006F937F938F939F93AF93BF93EF93FF9350
:105050000E94EE27FF91EF91BF91AF919F918F91A9
:105060007F916F915F914F913F912F910F900FBE64
:105070000F901F901895CF93DF93EC0160E00E9492
:1050800064268DE590E29E878D871B8A1A8A81E0CF
:10509000898389E08E8B198E1B8E1D8EDF91CF91B7
:1050A0000895CF93DF93EC0160E00E94642685E5CC
:1050B00090E29E878D871B8A1A8A81E0898389E026
:1050C0008E8B198E1B8E1D8EDF91CF910895CF93FD
:1050D000DF93EC0160E00E9464268FE490E29E87FB
:1050E0008D871B8A1A8A81E0898389E08E8B198ECD
:1050F0001B8E1D8EDF91CF910895FC01862F99277D
:1051000087FD9095668170E06F5F7F4F0E94FE2D56
:10511000858308951F920F920FB60F9211242F933B
:105120003F938F939F93AF93BF938091D2049091BD
:10513000D304A091D404B091D5043091D10423E0DC
:10514000230F2D3720F40196A11DB11D05C026E8BF
:10515000230F0296A11DB11D2093D1048093D20488
:105160009093D304A093D404B093D5048091D60433
:105170009091D704A091D804B091D9040196A11DB3
:10518000B11D8093D6049093D704A093D804B09314
:10519000D904BF91AF919F918F913F912F910F9023
:1051A0000FBE0F901F9018952FB7F8946091D204FE
:1051B0007091D3048091D4049091D5042FBF0895A9
:1051C0003FB7F8948091D6049091D704A091D80469
:1051D000B091D90426B5A89B05C02F3F19F00196C0
:1051E000A11DB11D3FBF6627782F892F9A2F620F0F
:1051F000711D811D911D42E0660F771F881F991F49
:105200004A95D1F70895CF92DF92EF92FF92CF9314
:10521000DF936B017C010E94E028EB01C114D104F3
:10522000E104F10489F00E94B02C0E94E0286C1B7C
:105230007D0B683E734090F381E0C81AD108E10805
:10524000F108C851DC4FEACFDF91CF91FF90EF908A
:10525000DF90CF900895789484B5826084BD84B542
:10526000816084BD85B5826085BD85B5816085BD61
:10527000EEE6F0E0808181608083E1E8F0E010827A
:10528000808182608083808181608083E0E8F0E0BB
:10529000808181608083E1EBF0E0808184608083A5
:1052A000E0EBF0E0808181608083EAE7F0E08081DC
:1052B000846080838081826080838081816080833C
:1052C0008081806880831092C10008958E3008F03C
:1052D0008E5087702091B00190E4299F9001112495
:1052E000822B80937C0080917A00806480937A0086
:1052F00080917A0086FDFCCF809178002091790022
:1053000090E0922B08951F93CF93DF93182FEB011A
:1053100061E00E940B2A209711F460E004C0CF3FA7
:10532000D10539F461E0812FDF91CF911F910C9469
:10533000442AE12FF0E0EF58FF4DE491E330F9F01B
:1053400048F4E130B9F0E230A1F584B5806284BD63
:10535000C8BD34C0E730E9F0E83019F1E43049F570
:1053600080918000806280938000D0938B00C093F6
:105370008A0024C084B5806884BDC7BD1FC08091E9
:105380008000806880938000D0938900C09388005B
:1053900015C08091B00080688093B000C093B300C6
:1053A0000DC08091B00080628093B000C093B400C3
:1053B00005C0C038D1050CF0B5CFAFCFDF91CF918C
:1053C0001F910895833081F028F4813099F0823064
:1053D000A1F008958730A9F08830B9F08430D1F475
:1053E000809180008F7D03C0809180008F778093B3
:1053F0008000089584B58F7702C084B58F7D84BD09
:1054000008958091B0008F7703C08091B0008F7DA8
:105410008093B0000895CF93DF9390E0FC01EB57A9
:10542000FF4D2491FC01E756FF4D8491882349F1FB
:1054300090E0880F991FFC01EF53FF4DA591B491A7
:1054400089549F4DFC01C591D4919FB7611108C04B
:10545000F8948C91209582238C93888182230AC0B2
:10546000623051F4F8948C91322F309583238C93D1
:105470008881822B888304C0F8948C91822B8C9332
:105480009FBFDF91CF9108950F931F93CF93DF9329
:105490001F92CDB7DEB7282F30E0F901EF58FF4D4E
:1054A0008491F901EB57FF4D1491F901E756FF4D37
:1054B00004910023C9F0882321F069830E94E22926
:1054C0006981E02FF0E0EE0FFF1FE954FF4DA59139
:1054D000B4919FB7F8948C91611103C0109581230A
:1054E00001C0812B8C939FBF0F90DF91CF911F91B3
:1054F0000F910895CF93DF93282F30E0F901EF58F3
:10550000FF4D8491F901EB57FF4DD491F901E75616
:10551000FF4DC491CC2391F081110E94E229EC2F20
:10552000F0E0EE0FFF1FE355FF4DA591B4912C91D4
:105530002D2381E090E021F480E002C080E090E043
:10554000DF91CF91089508950E942B290E94A32AEC
:105550000E94EA10C0E0D0E00E940C182097E1F30E
:105560000E940000F9CFCF92DF92EF92FF920F934B
:105570001F93CF93DF936C017A01EB01E60EF71EC8
:1055800000E010E0CE15DF0561F06991D601ED91E4
:10559000FC910190F081E02DC6010995080F191FBB
:1055A000F1CFC801DF91CF911F910F91FF90EF9044
:1055B000DF90CF9008956115710581F0DB010D90AA
:1055C0000020E9F7AD0141505109461B570BDC01A2
:1055D000ED91FC910280F381E02D099480E090E050
:1055E0000895EF92FF920F931F93CF93DF938C0157
:1055F000FB01C0E0D0E064917F018FEFE81AF80A68
:10560000662361F0D801ED91FC910190F081E02DCD
:10561000C8010995C80FD91FF701EDCFCE01DF9161
:10562000CF911F910F91FF90EF9008950C94DB2A7A
:10563000DC01ED91FC910190F081E02D09940F9334
:105640001F93CF93DF93EC016DE00E94182B8C0128
:105650006AE0CE010E94182B800F911FDF91CF913D
:105660001F910F9108950F931F93CF93DF93EC0138
:105670000E94F12A8C01CE010E941F2B800F911FE6
:10568000DF91CF911F910F9108958F929F92AF92CA
:10569000BF92CF92DF92EF92FF920F931F93CF931F
:1056A000DF93CDB7DEB7A1970FB6F894DEBF0FBE7C
:1056B000CDBF7C01C42EE52FCB01D22E19A221E053
:1056C0002D1510F02AE0D22E8E010F5D1F4F8D2C6C
:1056D000912CA12CB12C6C2D7E2FA50194010E9440
:1056E000122E8C2DD29E80191124015011098A305E
:1056F00014F4805D01C0895CF801808321153105B7
:105700004105510521F0C22EE32FCA01E4CFB801B3
:10571000C7010E94DB2AA1960FB6F894DEBF0FBE28
:10572000CDBFDF91CF911F910F91FF90EF90DF9050
:10573000CF90BF90AF909F908F900895CF92DF92BF
:10574000EF92FF920F931F93CF93DF93EC016A01C7
:105750007B012115310579F4E881F9810190F0810F
:10576000E02D642FDF91CF911F910F91FF90EF906B
:10577000DF90CF9009942A303105E9F477FF1AC001
:105780006DE20E94182B8C0144275527BA014C1951
:105790005D096E097F092AE0CE010E94452B800F2A
:1057A000911FDF91CF911F910F91FF90EF90DF90AC
:1057B000CF9008952AE0B701A601CE01DF91CF91E5
:1057C0001F910F91FF90EF90DF90CF900C94452B9D
:1057D0009A01AB01662757FD6095762F0C949E2B9E
:1057E0002115310541F4DC01ED91FC910190F0812E
:1057F000E02D642F09940C94452B9A01462F50E01C
:1058000060E070E00C94F02B0F931F93CF93DF9325
:10581000EC019A01462F50E060E070E00E94F02B0E
:105820008C01CE010E941F2B800F911FDF91CF9121
:105830001F910F9108959A01AB0160E070E00C9404
:10584000F02B009729F0BC0180E090E00C94C72E6B
:105850000895CF93DF9300D000D0CDB7DEB79B0182
:10586000AC01611571058105910569F069833A8381
:105870004B835C830E94C22E29813A814B815C81DB
:105880000E94342E03C060E070E0CB010F900F90B7
:105890000F900F90DF91CF910895CF92DF92EF920A
:1058A000FF926B017C01621773078407950764F40C
:1058B000CA01B9016C197D098E099F090E94292C22
:1058C0006C0D7D1D8E1D9F1DFF90EF90DF90CF9082
:1058D00008954F925F926F927F92AF92BF92CF9254
:1058E000DF92EF92FF920F931F93CF93DF93CDB789
:1058F000DEB729013A01621B730B840B950B2989D2
:105900003A894B895C892A193B094C095D09298B25
:105910003A8B4B8B5C8B9B01AC0169897A898B89B3
:105920009C890E94CE2DE418F50806091709A801E4
:1059300097010E94342E2A0D3B1D4C1D5D1DCA018E
:10594000B901DF91CF911F910F91FF90EF90DF9000
:10595000CF90BF90AF907F906F905F904F900895E1
:10596000089598D088F09F5790F0B92F9927B75194
:10597000A0F0D1F0660F771F881F991F1AF0BA9513
:10598000C9F712C0B13081F09FD0B1E008959CC03A
:10599000672F782F8827B85F39F0B93FCCF3869509
:1059A00077956795B395D9F73EF490958095709566
:1059B00061957F4F8F4F9F4F0895E89409C097FBE3
:1059C0003EF490958095709561957F4F8F4F9F4FD6
:1059D0009923A9F0F92F96E9BB279395F69587951A
:1059E00077956795B795F111F8CFFAF4BB0F11F4DD
:1059F00060FF1BC06F5F7F4F8F4F9F4F16C0882384
:105A000011F096E911C0772321F09EE8872F762FB9
:105A100005C0662371F096E8862F70E060E02AF0FA
:105A20009A95660F771F881FDAF7880F96958795E6
:105A300097F9089597F99F6780E870E060E008950E
:105A40009FEF80EC089500240A9416161706180696
:105A50000906089500240A94121613061406050672
:105A60000895092E0394000C11F4882352F0BB0F03
:105A700040F4BF2B11F460FF04C06F5F7F4F8F4F66
:105A80009F4F089557FD9058440F551F59F05F3FA1
:105A900071F04795880F97FB991F61F09F3F79F050
:105AA00087950895121613061406551FF2CF4695D2
:105AB000F1DF08C0161617061806991FF1CF869554
:105AC0007105610508940895E894BB276627772738
:105AD000CB0197F908950BD0C4CFB5DF28F0BADF1A
